{
  "_format": "hh-sol-artifact-1",
  "contractName": "DocumentNFT",
  "sourceName": "contracts/DocumentNFT.sol",
  "abi": [
    {
      "inputs": [],
      "stateMutability": "nonpayable",
      "type": "constructor"
    },
    {
      "inputs": [],
      "name": "AccessControlBadConfirmation",
      "type": "error"
    },
    {
      "inputs": [
        {
          "internalType": "address",
          "name": "account",
          "type": "address"
        },
        {
          "internalType": "bytes32",
          "name": "neededRole",
          "type": "bytes32"
        }
      ],
      "name": "AccessControlUnauthorizedAccount",
      "type": "error"
    },
    {
      "inputs": [
        {
          "internalType": "address",
          "name": "target",
          "type": "address"
        }
      ],
      "name": "AddressEmptyCode",
      "type": "error"
    },
    {
      "inputs": [
        {
          "internalType": "address",
          "name": "implementation",
          "type": "address"
        }
      ],
      "name": "ERC1967InvalidImplementation",
      "type": "error"
    },
    {
      "inputs": [],
      "name": "ERC1967NonPayable",
      "type": "error"
    },
    {
      "inputs": [
        {
          "internalType": "address",
          "name": "sender",
          "type": "address"
        },
        {
          "internalType": "uint256",
          "name": "tokenId",
          "type": "uint256"
        },
        {
          "internalType": "address",
          "name": "owner",
          "type": "address"
        }
      ],
      "name": "ERC721IncorrectOwner",
      "type": "error"
    },
    {
      "inputs": [
        {
          "internalType": "address",
          "name": "operator",
          "type": "address"
        },
        {
          "internalType": "uint256",
          "name": "tokenId",
          "type": "uint256"
        }
      ],
      "name": "ERC721InsufficientApproval",
      "type": "error"
    },
    {
      "inputs": [
        {
          "internalType": "address",
          "name": "approver",
          "type": "address"
        }
      ],
      "name": "ERC721InvalidApprover",
      "type": "error"
    },
    {
      "inputs": [
        {
          "internalType": "address",
          "name": "operator",
          "type": "address"
        }
      ],
      "name": "ERC721InvalidOperator",
      "type": "error"
    },
    {
      "inputs": [
        {
          "internalType": "address",
          "name": "owner",
          "type": "address"
        }
      ],
      "name": "ERC721InvalidOwner",
      "type": "error"
    },
    {
      "inputs": [
        {
          "internalType": "address",
          "name": "receiver",
          "type": "address"
        }
      ],
      "name": "ERC721InvalidReceiver",
      "type": "error"
    },
    {
      "inputs": [
        {
          "internalType": "address",
          "name": "sender",
          "type": "address"
        }
      ],
      "name": "ERC721InvalidSender",
      "type": "error"
    },
    {
      "inputs": [
        {
          "internalType": "uint256",
          "name": "tokenId",
          "type": "uint256"
        }
      ],
      "name": "ERC721NonexistentToken",
      "type": "error"
    },
    {
      "inputs": [],
      "name": "FailedCall",
      "type": "error"
    },
    {
      "inputs": [],
      "name": "InvalidInitialization",
      "type": "error"
    },
    {
      "inputs": [],
      "name": "NotInitializing",
      "type": "error"
    },
    {
      "inputs": [],
      "name": "UUPSUnauthorizedCallContext",
      "type": "error"
    },
    {
      "inputs": [
        {
          "internalType": "bytes32",
          "name": "slot",
          "type": "bytes32"
        }
      ],
      "name": "UUPSUnsupportedProxiableUUID",
      "type": "error"
    },
    {
      "anonymous": false,
      "inputs": [
        {
          "indexed": true,
          "internalType": "address",
          "name": "owner",
          "type": "address"
        },
        {
          "indexed": true,
          "internalType": "address",
          "name": "approved",
          "type": "address"
        },
        {
          "indexed": true,
          "internalType": "uint256",
          "name": "tokenId",
          "type": "uint256"
        }
      ],
      "name": "Approval",
      "type": "event"
    },
    {
      "anonymous": false,
      "inputs": [
        {
          "indexed": true,
          "internalType": "address",
          "name": "owner",
          "type": "address"
        },
        {
          "indexed": true,
          "internalType": "address",
          "name": "operator",
          "type": "address"
        },
        {
          "indexed": false,
          "internalType": "bool",
          "name": "approved",
          "type": "bool"
        }
      ],
      "name": "ApprovalForAll",
      "type": "event"
    },
    {
      "anonymous": false,
      "inputs": [
        {
          "indexed": true,
          "internalType": "uint256",
          "name": "tokenId",
          "type": "uint256"
        },
        {
          "indexed": true,
          "internalType": "address",
          "name": "owner",
          "type": "address"
        }
      ],
      "name": "DocumentBurned",
      "type": "event"
    },
    {
      "anonymous": false,
      "inputs": [
        {
          "indexed": true,
          "internalType": "uint256",
          "name": "tokenId",
          "type": "uint256"
        },
        {
          "indexed": true,
          "internalType": "address",
          "name": "owner",
          "type": "address"
        },
        {
          "indexed": false,
          "internalType": "string",
          "name": "cid",
          "type": "string"
        },
        {
          "indexed": false,
          "internalType": "string",
          "name": "metadata",
          "type": "string"
        },
        {
          "indexed": false,
          "internalType": "uint256",
          "name": "timestamp",
          "type": "uint256"
        }
      ],
      "name": "DocumentMinted",
      "type": "event"
    },
    {
      "anonymous": false,
      "inputs": [
        {
          "indexed": false,
          "internalType": "string",
          "name": "version",
          "type": "string"
        }
      ],
      "name": "DocumentUpgraded",
      "type": "event"
    },
    {
      "anonymous": false,
      "inputs": [
        {
          "indexed": false,
          "internalType": "uint64",
          "name": "version",
          "type": "uint64"
        }
      ],
      "name": "Initialized",
      "type": "event"
    },
    {
      "anonymous": false,
      "inputs": [
        {
          "indexed": true,
          "internalType": "bytes32",
          "name": "role",
          "type": "bytes32"
        },
        {
          "indexed": true,
          "internalType": "bytes32",
          "name": "previousAdminRole",
          "type": "bytes32"
        },
        {
          "indexed": true,
          "internalType": "bytes32",
          "name": "newAdminRole",
          "type": "bytes32"
        }
      ],
      "name": "RoleAdminChanged",
      "type": "event"
    },
    {
      "anonymous": false,
      "inputs": [
        {
          "indexed": true,
          "internalType": "bytes32",
          "name": "role",
          "type": "bytes32"
        },
        {
          "indexed": true,
          "internalType": "address",
          "name": "account",
          "type": "address"
        },
        {
          "indexed": true,
          "internalType": "address",
          "name": "sender",
          "type": "address"
        }
      ],
      "name": "RoleGranted",
      "type": "event"
    },
    {
      "anonymous": false,
      "inputs": [
        {
          "indexed": true,
          "internalType": "bytes32",
          "name": "role",
          "type": "bytes32"
        },
        {
          "indexed": true,
          "internalType": "address",
          "name": "account",
          "type": "address"
        },
        {
          "indexed": true,
          "internalType": "address",
          "name": "sender",
          "type": "address"
        }
      ],
      "name": "RoleRevoked",
      "type": "event"
    },
    {
      "anonymous": false,
      "inputs": [
        {
          "indexed": true,
          "internalType": "address",
          "name": "from",
          "type": "address"
        },
        {
          "indexed": true,
          "internalType": "address",
          "name": "to",
          "type": "address"
        },
        {
          "indexed": true,
          "internalType": "uint256",
          "name": "tokenId",
          "type": "uint256"
        }
      ],
      "name": "Transfer",
      "type": "event"
    },
    {
      "anonymous": false,
      "inputs": [
        {
          "indexed": true,
          "internalType": "address",
          "name": "implementation",
          "type": "address"
        }
      ],
      "name": "Upgraded",
      "type": "event"
    },
    {
      "inputs": [],
      "name": "DEFAULT_ADMIN_ROLE",
      "outputs": [
        {
          "internalType": "bytes32",
          "name": "",
          "type": "bytes32"
        }
      ],
      "stateMutability": "view",
      "type": "function"
    },
    {
      "inputs": [],
      "name": "UPGRADER_ROLE",
      "outputs": [
        {
          "internalType": "bytes32",
          "name": "",
          "type": "bytes32"
        }
      ],
      "stateMutability": "view",
      "type": "function"
    },
    {
      "inputs": [],
      "name": "UPGRADE_INTERFACE_VERSION",
      "outputs": [
        {
          "internalType": "string",
          "name": "",
          "type": "string"
        }
      ],
      "stateMutability": "view",
      "type": "function"
    },
    {
      "inputs": [
        {
          "internalType": "address",
          "name": "to",
          "type": "address"
        },
        {
          "internalType": "uint256",
          "name": "tokenId",
          "type": "uint256"
        }
      ],
      "name": "approve",
      "outputs": [],
      "stateMutability": "nonpayable",
      "type": "function"
    },
    {
      "inputs": [
        {
          "internalType": "address",
          "name": "owner",
          "type": "address"
        }
      ],
      "name": "balanceOf",
      "outputs": [
        {
          "internalType": "uint256",
          "name": "",
          "type": "uint256"
        }
      ],
      "stateMutability": "view",
      "type": "function"
    },
    {
      "inputs": [
        {
          "internalType": "uint256",
          "name": "tokenId",
          "type": "uint256"
        }
      ],
      "name": "burnDocument",
      "outputs": [],
      "stateMutability": "nonpayable",
      "type": "function"
    },
    {
      "inputs": [
        {
          "internalType": "uint256",
          "name": "tokenId",
          "type": "uint256"
        }
      ],
      "name": "getApproved",
      "outputs": [
        {
          "internalType": "address",
          "name": "",
          "type": "address"
        }
      ],
      "stateMutability": "view",
      "type": "function"
    },
    {
      "inputs": [
        {
          "internalType": "string",
          "name": "cid",
          "type": "string"
        }
      ],
      "name": "getDocumentByCid",
      "outputs": [
        {
          "internalType": "uint256",
          "name": "tokenId",
          "type": "uint256"
        },
        {
          "internalType": "address",
          "name": "owner",
          "type": "address"
        },
        {
          "internalType": "string",
          "name": "metadata",
          "type": "string"
        },
        {
          "internalType": "uint256",
          "name": "timestamp",
          "type": "uint256"
        }
      ],
      "stateMutability": "view",
      "type": "function"
    },
    {
      "inputs": [
        {
          "internalType": "bytes32",
          "name": "role",
          "type": "bytes32"
        }
      ],
      "name": "getRoleAdmin",
      "outputs": [
        {
          "internalType": "bytes32",
          "name": "",
          "type": "bytes32"
        }
      ],
      "stateMutability": "view",
      "type": "function"
    },
    {
      "inputs": [
        {
          "internalType": "bytes32",
          "name": "role",
          "type": "bytes32"
        },
        {
          "internalType": "address",
          "name": "account",
          "type": "address"
        }
      ],
      "name": "grantRole",
      "outputs": [],
      "stateMutability": "nonpayable",
      "type": "function"
    },
    {
      "inputs": [
        {
          "internalType": "bytes32",
          "name": "role",
          "type": "bytes32"
        },
        {
          "internalType": "address",
          "name": "account",
          "type": "address"
        }
      ],
      "name": "hasRole",
      "outputs": [
        {
          "internalType": "bool",
          "name": "",
          "type": "bool"
        }
      ],
      "stateMutability": "view",
      "type": "function"
    },
    {
      "inputs": [
        {
          "internalType": "string",
          "name": "name",
          "type": "string"
        },
        {
          "internalType": "string",
          "name": "symbol",
          "type": "string"
        },
        {
          "internalType": "address",
          "name": "admin",
          "type": "address"
        }
      ],
      "name": "initialize",
      "outputs": [],
      "stateMutability": "nonpayable",
      "type": "function"
    },
    {
      "inputs": [
        {
          "internalType": "address",
          "name": "owner",
          "type": "address"
        },
        {
          "internalType": "address",
          "name": "operator",
          "type": "address"
        }
      ],
      "name": "isApprovedForAll",
      "outputs": [
        {
          "internalType": "bool",
          "name": "",
          "type": "bool"
        }
      ],
      "stateMutability": "view",
      "type": "function"
    },
    {
      "inputs": [
        {
          "internalType": "address",
          "name": "to",
          "type": "address"
        },
        {
          "internalType": "string",
          "name": "cid",
          "type": "string"
        },
        {
          "internalType": "string",
          "name": "metadata",
          "type": "string"
        }
      ],
      "name": "mintDocument",
      "outputs": [],
      "stateMutability": "nonpayable",
      "type": "function"
    },
    {
      "inputs": [],
      "name": "name",
      "outputs": [
        {
          "internalType": "string",
          "name": "",
          "type": "string"
        }
      ],
      "stateMutability": "view",
      "type": "function"
    },
    {
      "inputs": [
        {
          "internalType": "uint256",
          "name": "tokenId",
          "type": "uint256"
        }
      ],
      "name": "ownerOf",
      "outputs": [
        {
          "internalType": "address",
          "name": "",
          "type": "address"
        }
      ],
      "stateMutability": "view",
      "type": "function"
    },
    {
      "inputs": [],
      "name": "proxiableUUID",
      "outputs": [
        {
          "internalType": "bytes32",
          "name": "",
          "type": "bytes32"
        }
      ],
      "stateMutability": "view",
      "type": "function"
    },
    {
      "inputs": [
        {
          "internalType": "bytes32",
          "name": "role",
          "type": "bytes32"
        },
        {
          "internalType": "address",
          "name": "callerConfirmation",
          "type": "address"
        }
      ],
      "name": "renounceRole",
      "outputs": [],
      "stateMutability": "nonpayable",
      "type": "function"
    },
    {
      "inputs": [
        {
          "internalType": "bytes32",
          "name": "role",
          "type": "bytes32"
        },
        {
          "internalType": "address",
          "name": "account",
          "type": "address"
        }
      ],
      "name": "revokeRole",
      "outputs": [],
      "stateMutability": "nonpayable",
      "type": "function"
    },
    {
      "inputs": [
        {
          "internalType": "address",
          "name": "from",
          "type": "address"
        },
        {
          "internalType": "address",
          "name": "to",
          "type": "address"
        },
        {
          "internalType": "uint256",
          "name": "tokenId",
          "type": "uint256"
        }
      ],
      "name": "safeTransferFrom",
      "outputs": [],
      "stateMutability": "nonpayable",
      "type": "function"
    },
    {
      "inputs": [
        {
          "internalType": "address",
          "name": "from",
          "type": "address"
        },
        {
          "internalType": "address",
          "name": "to",
          "type": "address"
        },
        {
          "internalType": "uint256",
          "name": "tokenId",
          "type": "uint256"
        },
        {
          "internalType": "bytes",
          "name": "data",
          "type": "bytes"
        }
      ],
      "name": "safeTransferFrom",
      "outputs": [],
      "stateMutability": "nonpayable",
      "type": "function"
    },
    {
      "inputs": [
        {
          "internalType": "uint256",
          "name": "tokenId",
          "type": "uint256"
        },
        {
          "internalType": "address",
          "name": "to",
          "type": "address"
        }
      ],
      "name": "safeTransferOwner",
      "outputs": [],
      "stateMutability": "nonpayable",
      "type": "function"
    },
    {
      "inputs": [
        {
          "internalType": "address",
          "name": "operator",
          "type": "address"
        },
        {
          "internalType": "bool",
          "name": "approved",
          "type": "bool"
        }
      ],
      "name": "setApprovalForAll",
      "outputs": [],
      "stateMutability": "nonpayable",
      "type": "function"
    },
    {
      "inputs": [
        {
          "internalType": "bytes4",
          "name": "interfaceId",
          "type": "bytes4"
        }
      ],
      "name": "supportsInterface",
      "outputs": [
        {
          "internalType": "bool",
          "name": "",
          "type": "bool"
        }
      ],
      "stateMutability": "view",
      "type": "function"
    },
    {
      "inputs": [],
      "name": "symbol",
      "outputs": [
        {
          "internalType": "string",
          "name": "",
          "type": "string"
        }
      ],
      "stateMutability": "view",
      "type": "function"
    },
    {
      "inputs": [
        {
          "internalType": "uint256",
          "name": "tokenId",
          "type": "uint256"
        }
      ],
      "name": "tokenMetadata",
      "outputs": [
        {
          "internalType": "string",
          "name": "cid",
          "type": "string"
        },
        {
          "internalType": "string",
          "name": "metadata",
          "type": "string"
        },
        {
          "internalType": "uint256",
          "name": "timestamp",
          "type": "uint256"
        }
      ],
      "stateMutability": "view",
      "type": "function"
    },
    {
      "inputs": [
        {
          "internalType": "uint256",
          "name": "tokenId",
          "type": "uint256"
        }
      ],
      "name": "tokenURI",
      "outputs": [
        {
          "internalType": "string",
          "name": "",
          "type": "string"
        }
      ],
      "stateMutability": "view",
      "type": "function"
    },
    {
      "inputs": [
        {
          "internalType": "address",
          "name": "from",
          "type": "address"
        },
        {
          "internalType": "address",
          "name": "to",
          "type": "address"
        },
        {
          "internalType": "uint256",
          "name": "tokenId",
          "type": "uint256"
        }
      ],
      "name": "transferFrom",
      "outputs": [],
      "stateMutability": "nonpayable",
      "type": "function"
    },
    {
      "inputs": [
        {
          "internalType": "address",
          "name": "newImplementation",
          "type": "address"
        },
        {
          "internalType": "bytes",
          "name": "data",
          "type": "bytes"
        }
      ],
      "name": "upgradeToAndCall",
      "outputs": [],
      "stateMutability": "payable",
      "type": "function"
    }
  ],
  "bytecode": "0x60a06040523073ffffffffffffffffffffffffffffffffffffffff1660809073ffffffffffffffffffffffffffffffffffffffff168152503480156200004457600080fd5b50620000556200005b60201b60201c565b620001ee565b60006200006d6200016560201b60201c565b90508060000160089054906101000a900460ff1615620000b9576040517ff92ee8a900000000000000000000000000000000000000000000000000000000815260040160405180910390fd5b67ffffffffffffffff80168160000160009054906101000a900467ffffffffffffffff1667ffffffffffffffff1614620001625767ffffffffffffffff8160000160006101000a81548167ffffffffffffffff021916908367ffffffffffffffff1602179055507fc7f505b2f371ae2175ee4913f4499e1f2633a7b5936321eed1cdaeb6115181d267ffffffffffffffff604051620001599190620001d1565b60405180910390a15b50565b600080620001786200018160201b60201c565b90508091505090565b60007ff0c57e16840df040f15088dc2f81fe391c3923bec73e23a9662efc9c229c6a0060001b905090565b600067ffffffffffffffff82169050919050565b620001cb81620001ac565b82525050565b6000602082019050620001e86000830184620001c0565b92915050565b6080516143286200021860003960008181611aa401528181611af90152611cd701526143286000f3fe6080604052600436106101c25760003560e01c806352d1902d116100f7578063a22cb46511610095578063d547741f11610064578063d547741f1461067e578063db2bbabc146106a7578063e985e9c5146106d0578063f72c0d8b1461070d576101c2565b8063a22cb465146105c4578063ad3cb1cc146105ed578063b88d4fde14610618578063c87b56dd14610641576101c2565b806370a08231116100d157806370a08231146104f457806391d148541461053157806395d89b411461056e578063a217fddf14610599576101c2565b806352d1902d1461044d5780636352211e146104785780636914db60146104b5576101c2565b8063248a9ca31161016457806336568abe1161013e57806336568abe1461039f578063415ca538146103c857806342842e0e146104085780634f1ef28614610431576101c2565b8063248a9ca3146103105780632b44ddf91461034d5780632f2ff15d14610376576101c2565b8063081812fc116101a0578063081812fc14610258578063095ea7b3146102955780630a25dcad146102be57806323b872dd146102e7576101c2565b806301ffc9a7146101c757806306fdde0314610204578063077f224a1461022f575b600080fd5b3480156101d357600080fd5b506101ee60048036038101906101e9919061303d565b610738565b6040516101fb9190613085565b60405180910390f35b34801561021057600080fd5b5061021961074a565b6040516102269190613130565b60405180910390f35b34801561023b57600080fd5b50610256600480360381019061025191906132e5565b6107eb565b005b34801561026457600080fd5b5061027f600480360381019061027a91906133a6565b6109c6565b60405161028c91906133e2565b60405180910390f35b3480156102a157600080fd5b506102bc60048036038101906102b791906133fd565b6109e2565b005b3480156102ca57600080fd5b506102e560048036038101906102e0919061343d565b6109f8565b005b3480156102f357600080fd5b5061030e6004803603810190610309919061347d565b610a5e565b005b34801561031c57600080fd5b5061033760048036038101906103329190613506565b610b60565b6040516103449190613542565b60405180910390f35b34801561035957600080fd5b50610374600480360381019061036f91906135bd565b610b8e565b005b34801561038257600080fd5b5061039d60048036038101906103989190613652565b610ddf565b005b3480156103ab57600080fd5b506103c660048036038101906103c19190613652565b610e01565b005b3480156103d457600080fd5b506103ef60048036038101906103ea9190613692565b610e7c565b6040516103ff94939291906136ee565b60405180910390f35b34801561041457600080fd5b5061042f600480360381019061042a919061347d565b610fab565b005b61044b600480360381019061044691906137db565b610fcb565b005b34801561045957600080fd5b50610462610fea565b60405161046f9190613542565b60405180910390f35b34801561048457600080fd5b5061049f600480360381019061049a91906133a6565b61101d565b6040516104ac91906133e2565b60405180910390f35b3480156104c157600080fd5b506104dc60048036038101906104d791906133a6565b61102f565b6040516104eb93929190613837565b60405180910390f35b34801561050057600080fd5b5061051b6004803603810190610516919061387c565b611177565b60405161052891906138a9565b60405180910390f35b34801561053d57600080fd5b5061055860048036038101906105539190613652565b611240565b6040516105659190613085565b60405180910390f35b34801561057a57600080fd5b506105836112b9565b6040516105909190613130565b60405180910390f35b3480156105a557600080fd5b506105ae61135a565b6040516105bb9190613542565b60405180910390f35b3480156105d057600080fd5b506105eb60048036038101906105e691906138f0565b611361565b005b3480156105f957600080fd5b50610602611377565b60405161060f9190613130565b60405180910390f35b34801561062457600080fd5b5061063f600480360381019061063a9190613930565b6113b0565b005b34801561064d57600080fd5b50610668600480360381019061066391906133a6565b6113d5565b6040516106759190613130565b60405180910390f35b34801561068a57600080fd5b506106a560048036038101906106a09190613652565b61143e565b005b3480156106b357600080fd5b506106ce60048036038101906106c991906133a6565b611460565b005b3480156106dc57600080fd5b506106f760048036038101906106f291906139b3565b611507565b6040516107049190613085565b60405180910390f35b34801561071957600080fd5b506107226115a9565b60405161072f9190613542565b60405180910390f35b6000610743826115cd565b9050919050565b60606000610756611647565b905080600001805461076790613a22565b80601f016020809104026020016040519081016040528092919081815260200182805461079390613a22565b80156107e05780601f106107b5576101008083540402835291602001916107e0565b820191906000526020600020905b8154815290600101906020018083116107c357829003601f168201915b505050505091505090565b60006107f561166f565b905060008160000160089054906101000a900460ff1615905060008260000160009054906101000a900467ffffffffffffffff1690506000808267ffffffffffffffff161480156108435750825b9050600060018367ffffffffffffffff16148015610878575060003073ffffffffffffffffffffffffffffffffffffffff163b145b905081158015610886575080155b156108bd576040517ff92ee8a900000000000000000000000000000000000000000000000000000000815260040160405180910390fd5b60018560000160006101000a81548167ffffffffffffffff021916908367ffffffffffffffff160217905550831561090d5760018560000160086101000a81548160ff0219169083151502179055505b6109178888611683565b61091f611699565b6109276116a3565b6109346000801b876116ad565b5061095f7f189ab7a9244df0848122154315af71fe140f3db0fe014031783b0946b8c9d2e3876116ad565b5083156109bc5760008560000160086101000a81548160ff0219169083151502179055507fc7f505b2f371ae2175ee4913f4499e1f2633a7b5936321eed1cdaeb6115181d260016040516109b39190613aac565b60405180910390a15b5050505050505050565b60006109d1826117ae565b506109db82611836565b9050919050565b6109f482826109ef611881565b611889565b5050565b610a09610a03611881565b8361189b565b610a48576040517f08c379a0000000000000000000000000000000000000000000000000000000008152600401610a3f90613b39565b60405180910390fd5b610a5a610a53611881565b8284610fab565b5050565b600073ffffffffffffffffffffffffffffffffffffffff168273ffffffffffffffffffffffffffffffffffffffff1603610ad05760006040517f64a0ae92000000000000000000000000000000000000000000000000000000008152600401610ac791906133e2565b60405180910390fd5b6000610ae48383610adf611881565b611930565b90508373ffffffffffffffffffffffffffffffffffffffff168173ffffffffffffffffffffffffffffffffffffffff1614610b5a578382826040517f64283d7b000000000000000000000000000000000000000000000000000000008152600401610b5193929190613b59565b60405180910390fd5b50505050565b600080610b6b611946565b905080600001600084815260200190815260200160002060010154915050919050565b6000801b610b9b8161196e565b60008585905011610be1576040517f08c379a0000000000000000000000000000000000000000000000000000000008152600401610bd890613bdc565b60405180910390fd5b600060018686604051610bf5929190613c2c565b90815260200160405180910390205414610c44576040517f08c379a0000000000000000000000000000000000000000000000000000000008152600401610c3b90613cb7565b60405180910390fd5b600080815480929190610c5690613d06565b9190505550600080549050610c6b8782611982565b8060018787604051610c7e929190613c2c565b908152602001604051809103902081905550604051806060016040528087878080601f016020809104026020016040519081016040528093929190818152602001838380828437600081840152601f19601f82011690508083019250505050505050815260200185858080601f016020809104026020016040519081016040528093929190818152602001838380828437600081840152601f19601f82011690508083019250505050505050815260200142815250600260008381526020019081526020016000206000820151816000019081610d5b9190613ef0565b506020820151816001019081610d719190613ef0565b50604082015181600201559050508673ffffffffffffffffffffffffffffffffffffffff16817f2a14ee97b97f3cb7f59c8824568fc30dc1edf508b5277e29ca9225437c5ff4d88888888842604051610dce959493929190613fef565b60405180910390a350505050505050565b610de882610b60565b610df18161196e565b610dfb83836116ad565b50505050565b610e09611881565b73ffffffffffffffffffffffffffffffffffffffff168173ffffffffffffffffffffffffffffffffffffffff1614610e6d576040517f6697b23200000000000000000000000000000000000000000000000000000000815260040160405180910390fd5b610e7782826119a0565b505050565b6000806060600060018686604051610e95929190613c2c565b908152602001604051809103902054935060008403610ee9576040517f08c379a0000000000000000000000000000000000000000000000000000000008152600401610ee090614084565b60405180910390fd5b6000600260008681526020019081526020016000209050610f098561101d565b9350806001018054610f1a90613a22565b80601f0160208091040260200160405190810160405280929190818152602001828054610f4690613a22565b8015610f935780601f10610f6857610100808354040283529160200191610f93565b820191906000526020600020905b815481529060010190602001808311610f7657829003601f168201915b50505050509250806002015491505092959194509250565b610fc6838383604051806020016040528060008152506113b0565b505050565b610fd3611aa2565b610fdc82611b88565b610fe68282611bb6565b5050565b6000610ff4611cd5565b7f360894a13ba1a3210667c828492db98dca3e2076cc3735a920a3ca505d382bbc60001b905090565b6000611028826117ae565b9050919050565b60608060008060026000868152602001908152602001600020905080600001805461105990613a22565b80601f016020809104026020016040519081016040528092919081815260200182805461108590613a22565b80156110d25780601f106110a7576101008083540402835291602001916110d2565b820191906000526020600020905b8154815290600101906020018083116110b557829003601f168201915b505050505093508060010180546110e890613a22565b80601f016020809104026020016040519081016040528092919081815260200182805461111490613a22565b80156111615780601f1061113657610100808354040283529160200191611161565b820191906000526020600020905b81548152906001019060200180831161114457829003601f168201915b5050505050925080600201549150509193909250565b600080611182611647565b9050600073ffffffffffffffffffffffffffffffffffffffff168373ffffffffffffffffffffffffffffffffffffffff16036111f65760006040517f89c62b640000000000000000000000000000000000000000000000000000000081526004016111ed91906133e2565b60405180910390fd5b8060030160008473ffffffffffffffffffffffffffffffffffffffff1673ffffffffffffffffffffffffffffffffffffffff16815260200190815260200160002054915050919050565b60008061124b611946565b905080600001600085815260200190815260200160002060000160008473ffffffffffffffffffffffffffffffffffffffff1673ffffffffffffffffffffffffffffffffffffffff16815260200190815260200160002060009054906101000a900460ff1691505092915050565b606060006112c5611647565b90508060010180546112d690613a22565b80601f016020809104026020016040519081016040528092919081815260200182805461130290613a22565b801561134f5780601f106113245761010080835404028352916020019161134f565b820191906000526020600020905b81548152906001019060200180831161133257829003601f168201915b505050505091505090565b6000801b81565b61137361136c611881565b8383611d5c565b5050565b6040518060400160405280600581526020017f352e302e3000000000000000000000000000000000000000000000000000000081525081565b6113bb848484610a5e565b6113cf6113c6611881565b85858585611eda565b50505050565b60606113e0826117ae565b5060006113eb61208b565b9050600081511161140b5760405180602001604052806000815250611436565b80611415846120a2565b6040516020016114269291906140d5565b6040516020818303038152906040525b915050919050565b61144782610b60565b6114508161196e565b61145a83836119a0565b50505050565b61147161146b611881565b8261189b565b6114b0576040517f08c379a00000000000000000000000000000000000000000000000000000000081526004016114a790613b39565b60405180910390fd5b6114b981612170565b6114c1611881565b73ffffffffffffffffffffffffffffffffffffffff16817f95b0c6dbd0da7d0f9a711a4242f4b6fac33714e5d434ec761322b0dbb7a5608e60405160405180910390a350565b600080611512611647565b90508060050160008573ffffffffffffffffffffffffffffffffffffffff1673ffffffffffffffffffffffffffffffffffffffff16815260200190815260200160002060008473ffffffffffffffffffffffffffffffffffffffff1673ffffffffffffffffffffffffffffffffffffffff16815260200190815260200160002060009054906101000a900460ff1691505092915050565b7f189ab7a9244df0848122154315af71fe140f3db0fe014031783b0946b8c9d2e381565b60007f7965db0b000000000000000000000000000000000000000000000000000000007bffffffffffffffffffffffffffffffffffffffffffffffffffffffff1916827bffffffffffffffffffffffffffffffffffffffffffffffffffffffff19161480611640575061163f826121f6565b5b9050919050565b60007f80bb2b638cc20bc4d0a60d66940f3ab4a00c1d7b313497ca82fb0b4ab0079300905090565b60008061167a6122d8565b90508091505090565b61168b612303565b6116958282612343565b5050565b6116a1612303565b565b6116ab612303565b565b6000806116b8611946565b90506116c48484611240565b6117a257600181600001600086815260200190815260200160002060000160008573ffffffffffffffffffffffffffffffffffffffff1673ffffffffffffffffffffffffffffffffffffffff16815260200190815260200160002060006101000a81548160ff02191690831515021790555061173e611881565b73ffffffffffffffffffffffffffffffffffffffff168373ffffffffffffffffffffffffffffffffffffffff16857f2f8788117e7eff1d82e926ec794901d17c78024a50270940304540a733656f0d60405160405180910390a460019150506117a8565b60009150505b92915050565b6000806117ba83612380565b9050600073ffffffffffffffffffffffffffffffffffffffff168173ffffffffffffffffffffffffffffffffffffffff160361182d57826040517f7e27328900000000000000000000000000000000000000000000000000000000815260040161182491906138a9565b60405180910390fd5b80915050919050565b600080611841611647565b905080600401600084815260200190815260200160002060009054906101000a900473ffffffffffffffffffffffffffffffffffffffff16915050919050565b600033905090565b61189683838360016123cb565b505050565b6000806118a78361101d565b90508073ffffffffffffffffffffffffffffffffffffffff168473ffffffffffffffffffffffffffffffffffffffff1614806118e957506118e88185611507565b5b8061192757508373ffffffffffffffffffffffffffffffffffffffff1661190f846109c6565b73ffffffffffffffffffffffffffffffffffffffff16145b91505092915050565b600061193d84848461259f565b90509392505050565b60007f02dd7bc7dec4dceedda775e58dd541e08a116c6c53815c0bd028192f7b626800905090565b61197f8161197a611881565b6127cc565b50565b61199c82826040518060200160405280600081525061281d565b5050565b6000806119ab611946565b90506119b78484611240565b15611a9657600081600001600086815260200190815260200160002060000160008573ffffffffffffffffffffffffffffffffffffffff1673ffffffffffffffffffffffffffffffffffffffff16815260200190815260200160002060006101000a81548160ff021916908315150217905550611a32611881565b73ffffffffffffffffffffffffffffffffffffffff168373ffffffffffffffffffffffffffffffffffffffff16857ff6391f5c32d9c69d2a47ea670b442974b53935d1edc7fd64eb21e047a839171b60405160405180910390a46001915050611a9c565b60009150505b92915050565b7f000000000000000000000000000000000000000000000000000000000000000073ffffffffffffffffffffffffffffffffffffffff163073ffffffffffffffffffffffffffffffffffffffff161480611b4f57507f000000000000000000000000000000000000000000000000000000000000000073ffffffffffffffffffffffffffffffffffffffff16611b36612841565b73ffffffffffffffffffffffffffffffffffffffff1614155b15611b86576040517fe07c8dba00000000000000000000000000000000000000000000000000000000815260040160405180910390fd5b565b7f189ab7a9244df0848122154315af71fe140f3db0fe014031783b0946b8c9d2e3611bb28161196e565b5050565b8173ffffffffffffffffffffffffffffffffffffffff166352d1902d6040518163ffffffff1660e01b8152600401602060405180830381865afa925050508015611c1e57506040513d601f19601f82011682018060405250810190611c1b919061410e565b60015b611c5f57816040517f4c9c8ce3000000000000000000000000000000000000000000000000000000008152600401611c5691906133e2565b60405180910390fd5b7f360894a13ba1a3210667c828492db98dca3e2076cc3735a920a3ca505d382bbc60001b8114611cc657806040517faa1d49a4000000000000000000000000000000000000000000000000000000008152600401611cbd9190613542565b60405180910390fd5b611cd08383612898565b505050565b7f000000000000000000000000000000000000000000000000000000000000000073ffffffffffffffffffffffffffffffffffffffff163073ffffffffffffffffffffffffffffffffffffffff1614611d5a576040517fe07c8dba00000000000000000000000000000000000000000000000000000000815260040160405180910390fd5b565b6000611d66611647565b9050600073ffffffffffffffffffffffffffffffffffffffff168373ffffffffffffffffffffffffffffffffffffffff1603611dd957826040517f5b08ba18000000000000000000000000000000000000000000000000000000008152600401611dd091906133e2565b60405180910390fd5b818160050160008673ffffffffffffffffffffffffffffffffffffffff1673ffffffffffffffffffffffffffffffffffffffff16815260200190815260200160002060008573ffffffffffffffffffffffffffffffffffffffff1673ffffffffffffffffffffffffffffffffffffffff16815260200190815260200160002060006101000a81548160ff0219169083151502179055508273ffffffffffffffffffffffffffffffffffffffff168473ffffffffffffffffffffffffffffffffffffffff167f17307eab39ab6107e8899845ad3d59bd9653f200f220920489ca2b5937696c3184604051611ecc9190613085565b60405180910390a350505050565b60008373ffffffffffffffffffffffffffffffffffffffff163b1115612084578273ffffffffffffffffffffffffffffffffffffffff1663150b7a02868685856040518563ffffffff1660e01b8152600401611f399493929190614190565b6020604051808303816000875af1925050508015611f7557506040513d601f19601f82011682018060405250810190611f7291906141f1565b60015b611ff9573d8060008114611fa5576040519150601f19603f3d011682016040523d82523d6000602084013e611faa565b606091505b506000815103611ff157836040517f64a0ae92000000000000000000000000000000000000000000000000000000008152600401611fe891906133e2565b60405180910390fd5b805160208201fd5b63150b7a0260e01b7bffffffffffffffffffffffffffffffffffffffffffffffffffffffff1916817bffffffffffffffffffffffffffffffffffffffffffffffffffffffff19161461208257836040517f64a0ae9200000000000000000000000000000000000000000000000000000000815260040161207991906133e2565b60405180910390fd5b505b5050505050565b606060405180602001604052806000815250905090565b6060600060016120b18461290b565b01905060008167ffffffffffffffff8111156120d0576120cf61315c565b5b6040519080825280601f01601f1916602001820160405280156121025781602001600182028036833780820191505090505b509050600082602083010190505b600115612165578080600190039150507f3031323334353637383961626364656600000000000000000000000000000000600a86061a8153600a85816121595761215861421e565b5b04945060008503612110575b819350505050919050565b600061217f6000836000611930565b9050600073ffffffffffffffffffffffffffffffffffffffff168173ffffffffffffffffffffffffffffffffffffffff16036121f257816040517f7e2732890000000000000000000000000000000000000000000000000000000081526004016121e991906138a9565b60405180910390fd5b5050565b60007f80ac58cd000000000000000000000000000000000000000000000000000000007bffffffffffffffffffffffffffffffffffffffffffffffffffffffff1916827bffffffffffffffffffffffffffffffffffffffffffffffffffffffff191614806122c157507f5b5e139f000000000000000000000000000000000000000000000000000000007bffffffffffffffffffffffffffffffffffffffffffffffffffffffff1916827bffffffffffffffffffffffffffffffffffffffffffffffffffffffff1916145b806122d157506122d082612a5e565b5b9050919050565b60007ff0c57e16840df040f15088dc2f81fe391c3923bec73e23a9662efc9c229c6a0060001b905090565b61230b612ac8565b612341576040517fd7e6bcf800000000000000000000000000000000000000000000000000000000815260040160405180910390fd5b565b61234b612303565b6000612355611647565b9050828160000190816123689190613ef0565b508181600101908161237a9190613ef0565b50505050565b60008061238b611647565b905080600201600084815260200190815260200160002060009054906101000a900473ffffffffffffffffffffffffffffffffffffffff16915050919050565b60006123d5611647565b905081806124105750600073ffffffffffffffffffffffffffffffffffffffff168373ffffffffffffffffffffffffffffffffffffffff1614155b15612544576000612420856117ae565b9050600073ffffffffffffffffffffffffffffffffffffffff168473ffffffffffffffffffffffffffffffffffffffff161415801561248b57508373ffffffffffffffffffffffffffffffffffffffff168173ffffffffffffffffffffffffffffffffffffffff1614155b801561249e575061249c8185611507565b155b156124e057836040517fa9fbf51f0000000000000000000000000000000000000000000000000000000081526004016124d791906133e2565b60405180910390fd5b821561254257848673ffffffffffffffffffffffffffffffffffffffff168273ffffffffffffffffffffffffffffffffffffffff167f8c5be1e5ebec7d5bd14f71427d1e84f3dd0314c0f7b2291e5b200ac8c7c3b92560405160405180910390a45b505b8481600401600086815260200190815260200160002060006101000a81548173ffffffffffffffffffffffffffffffffffffffff021916908373ffffffffffffffffffffffffffffffffffffffff1602179055505050505050565b6000806125aa611647565b905060006125b785612380565b9050600073ffffffffffffffffffffffffffffffffffffffff168473ffffffffffffffffffffffffffffffffffffffff16146125f9576125f8818587612ae8565b5b600073ffffffffffffffffffffffffffffffffffffffff168173ffffffffffffffffffffffffffffffffffffffff161461268c5761263b6000866000806123cb565b60018260030160008373ffffffffffffffffffffffffffffffffffffffff1673ffffffffffffffffffffffffffffffffffffffff168152602001908152602001600020600082825403925050819055505b600073ffffffffffffffffffffffffffffffffffffffff168673ffffffffffffffffffffffffffffffffffffffff16146127115760018260030160008873ffffffffffffffffffffffffffffffffffffffff1673ffffffffffffffffffffffffffffffffffffffff168152602001908152602001600020600082825401925050819055505b8582600201600087815260200190815260200160002060006101000a81548173ffffffffffffffffffffffffffffffffffffffff021916908373ffffffffffffffffffffffffffffffffffffffff160217905550848673ffffffffffffffffffffffffffffffffffffffff168273ffffffffffffffffffffffffffffffffffffffff167fddf252ad1be2c89b69c2b068fc378daa952ba7f163c4a11628f55a4df523b3ef60405160405180910390a480925050509392505050565b6127d68282611240565b6128195780826040517fe2517d3f00000000000000000000000000000000000000000000000000000000815260040161281092919061424d565b60405180910390fd5b5050565b6128278383612bac565b61283c612832611881565b6000858585611eda565b505050565b600061286f7f360894a13ba1a3210667c828492db98dca3e2076cc3735a920a3ca505d382bbc60001b612ca5565b60000160009054906101000a900473ffffffffffffffffffffffffffffffffffffffff16905090565b6128a182612caf565b8173ffffffffffffffffffffffffffffffffffffffff167fbc7cd75a20ee27fd9adebab32041f755214dbc6bffa90cc0225b39da2e5c2d3b60405160405180910390a26000815111156128fe576128f88282612d7c565b50612907565b612906612e00565b5b5050565b600080600090507a184f03e93ff9f4daa797ed6e38ed64bf6a1f0100000000000000008310612969577a184f03e93ff9f4daa797ed6e38ed64bf6a1f010000000000000000838161295f5761295e61421e565b5b0492506040810190505b6d04ee2d6d415b85acef810000000083106129a6576d04ee2d6d415b85acef8100000000838161299c5761299b61421e565b5b0492506020810190505b662386f26fc1000083106129d557662386f26fc1000083816129cb576129ca61421e565b5b0492506010810190505b6305f5e10083106129fe576305f5e10083816129f4576129f361421e565b5b0492506008810190505b6127108310612a23576127108381612a1957612a1861421e565b5b0492506004810190505b60648310612a465760648381612a3c57612a3b61421e565b5b0492506002810190505b600a8310612a55576001810190505b80915050919050565b60007f01ffc9a7000000000000000000000000000000000000000000000000000000007bffffffffffffffffffffffffffffffffffffffffffffffffffffffff1916827bffffffffffffffffffffffffffffffffffffffffffffffffffffffff1916149050919050565b6000612ad261166f565b60000160089054906101000a900460ff16905090565b612af3838383612e3d565b612ba757600073ffffffffffffffffffffffffffffffffffffffff168373ffffffffffffffffffffffffffffffffffffffff1603612b6857806040517f7e273289000000000000000000000000000000000000000000000000000000008152600401612b5f91906138a9565b60405180910390fd5b81816040517f177e802f000000000000000000000000000000000000000000000000000000008152600401612b9e929190614276565b60405180910390fd5b505050565b600073ffffffffffffffffffffffffffffffffffffffff168273ffffffffffffffffffffffffffffffffffffffff1603612c1e5760006040517f64a0ae92000000000000000000000000000000000000000000000000000000008152600401612c1591906133e2565b60405180910390fd5b6000612c2c83836000611930565b9050600073ffffffffffffffffffffffffffffffffffffffff168173ffffffffffffffffffffffffffffffffffffffff1614612ca05760006040517f73c6ac6e000000000000000000000000000000000000000000000000000000008152600401612c9791906133e2565b60405180910390fd5b505050565b6000819050919050565b60008173ffffffffffffffffffffffffffffffffffffffff163b03612d0b57806040517f4c9c8ce3000000000000000000000000000000000000000000000000000000008152600401612d0291906133e2565b60405180910390fd5b80612d387f360894a13ba1a3210667c828492db98dca3e2076cc3735a920a3ca505d382bbc60001b612ca5565b60000160006101000a81548173ffffffffffffffffffffffffffffffffffffffff021916908373ffffffffffffffffffffffffffffffffffffffff16021790555050565b60606000808473ffffffffffffffffffffffffffffffffffffffff1684604051612da691906142db565b600060405180830381855af49150503d8060008114612de1576040519150601f19603f3d011682016040523d82523d6000602084013e612de6565b606091505b5091509150612df6858383612efe565b9250505092915050565b6000341115612e3b576040517fb398979f00000000000000000000000000000000000000000000000000000000815260040160405180910390fd5b565b60008073ffffffffffffffffffffffffffffffffffffffff168373ffffffffffffffffffffffffffffffffffffffff1614158015612ef557508273ffffffffffffffffffffffffffffffffffffffff168473ffffffffffffffffffffffffffffffffffffffff161480612eb65750612eb58484611507565b5b80612ef457508273ffffffffffffffffffffffffffffffffffffffff16612edc83611836565b73ffffffffffffffffffffffffffffffffffffffff16145b5b90509392505050565b606082612f1357612f0e82612f8d565b612f85565b60008251148015612f3b575060008473ffffffffffffffffffffffffffffffffffffffff163b145b15612f7d57836040517f9996b315000000000000000000000000000000000000000000000000000000008152600401612f7491906133e2565b60405180910390fd5b819050612f86565b5b9392505050565b600081511115612f9f57805160208201fd5b6040517fd6bda27500000000000000000000000000000000000000000000000000000000815260040160405180910390fd5b6000604051905090565b600080fd5b600080fd5b60007fffffffff0000000000000000000000000000000000000000000000000000000082169050919050565b61301a81612fe5565b811461302557600080fd5b50565b60008135905061303781613011565b92915050565b60006020828403121561305357613052612fdb565b5b600061306184828501613028565b91505092915050565b60008115159050919050565b61307f8161306a565b82525050565b600060208201905061309a6000830184613076565b92915050565b600081519050919050565b600082825260208201905092915050565b60005b838110156130da5780820151818401526020810190506130bf565b60008484015250505050565b6000601f19601f8301169050919050565b6000613102826130a0565b61310c81856130ab565b935061311c8185602086016130bc565b613125816130e6565b840191505092915050565b6000602082019050818103600083015261314a81846130f7565b905092915050565b600080fd5b600080fd5b7f4e487b7100000000000000000000000000000000000000000000000000000000600052604160045260246000fd5b613194826130e6565b810181811067ffffffffffffffff821117156131b3576131b261315c565b5b80604052505050565b60006131c6612fd1565b90506131d2828261318b565b919050565b600067ffffffffffffffff8211156131f2576131f161315c565b5b6131fb826130e6565b9050602081019050919050565b82818337600083830152505050565b600061322a613225846131d7565b6131bc565b90508281526020810184848401111561324657613245613157565b5b613251848285613208565b509392505050565b600082601f83011261326e5761326d613152565b5b813561327e848260208601613217565b91505092915050565b600073ffffffffffffffffffffffffffffffffffffffff82169050919050565b60006132b282613287565b9050919050565b6132c2816132a7565b81146132cd57600080fd5b50565b6000813590506132df816132b9565b92915050565b6000806000606084860312156132fe576132fd612fdb565b5b600084013567ffffffffffffffff81111561331c5761331b612fe0565b5b61332886828701613259565b935050602084013567ffffffffffffffff81111561334957613348612fe0565b5b61335586828701613259565b9250506040613366868287016132d0565b9150509250925092565b6000819050919050565b61338381613370565b811461338e57600080fd5b50565b6000813590506133a08161337a565b92915050565b6000602082840312156133bc576133bb612fdb565b5b60006133ca84828501613391565b91505092915050565b6133dc816132a7565b82525050565b60006020820190506133f760008301846133d3565b92915050565b6000806040838503121561341457613413612fdb565b5b6000613422858286016132d0565b925050602061343385828601613391565b9150509250929050565b6000806040838503121561345457613453612fdb565b5b600061346285828601613391565b9250506020613473858286016132d0565b9150509250929050565b60008060006060848603121561349657613495612fdb565b5b60006134a4868287016132d0565b93505060206134b5868287016132d0565b92505060406134c686828701613391565b9150509250925092565b6000819050919050565b6134e3816134d0565b81146134ee57600080fd5b50565b600081359050613500816134da565b92915050565b60006020828403121561351c5761351b612fdb565b5b600061352a848285016134f1565b91505092915050565b61353c816134d0565b82525050565b60006020820190506135576000830184613533565b92915050565b600080fd5b600080fd5b60008083601f84011261357d5761357c613152565b5b8235905067ffffffffffffffff81111561359a5761359961355d565b5b6020830191508360018202830111156135b6576135b5613562565b5b9250929050565b6000806000806000606086880312156135d9576135d8612fdb565b5b60006135e7888289016132d0565b955050602086013567ffffffffffffffff81111561360857613607612fe0565b5b61361488828901613567565b9450945050604086013567ffffffffffffffff81111561363757613636612fe0565b5b61364388828901613567565b92509250509295509295909350565b6000806040838503121561366957613668612fdb565b5b6000613677858286016134f1565b9250506020613688858286016132d0565b9150509250929050565b600080602083850312156136a9576136a8612fdb565b5b600083013567ffffffffffffffff8111156136c7576136c6612fe0565b5b6136d385828601613567565b92509250509250929050565b6136e881613370565b82525050565b600060808201905061370360008301876136df565b61371060208301866133d3565b818103604083015261372281856130f7565b905061373160608301846136df565b95945050505050565b600067ffffffffffffffff8211156137555761375461315c565b5b61375e826130e6565b9050602081019050919050565b600061377e6137798461373a565b6131bc565b90508281526020810184848401111561379a57613799613157565b5b6137a5848285613208565b509392505050565b600082601f8301126137c2576137c1613152565b5b81356137d284826020860161376b565b91505092915050565b600080604083850312156137f2576137f1612fdb565b5b6000613800858286016132d0565b925050602083013567ffffffffffffffff81111561382157613820612fe0565b5b61382d858286016137ad565b9150509250929050565b6000606082019050818103600083015261385181866130f7565b9050818103602083015261386581856130f7565b905061387460408301846136df565b949350505050565b60006020828403121561389257613891612fdb565b5b60006138a0848285016132d0565b91505092915050565b60006020820190506138be60008301846136df565b92915050565b6138cd8161306a565b81146138d857600080fd5b50565b6000813590506138ea816138c4565b92915050565b6000806040838503121561390757613906612fdb565b5b6000613915858286016132d0565b9250506020613926858286016138db565b9150509250929050565b6000806000806080858703121561394a57613949612fdb565b5b6000613958878288016132d0565b9450506020613969878288016132d0565b935050604061397a87828801613391565b925050606085013567ffffffffffffffff81111561399b5761399a612fe0565b5b6139a7878288016137ad565b91505092959194509250565b600080604083850312156139ca576139c9612fdb565b5b60006139d8858286016132d0565b92505060206139e9858286016132d0565b9150509250929050565b7f4e487b7100000000000000000000000000000000000000000000000000000000600052602260045260246000fd5b60006002820490506001821680613a3a57607f821691505b602082108103613a4d57613a4c6139f3565b5b50919050565b6000819050919050565b600067ffffffffffffffff82169050919050565b6000819050919050565b6000613a96613a91613a8c84613a53565b613a71565b613a5d565b9050919050565b613aa681613a7b565b82525050565b6000602082019050613ac16000830184613a9d565b92915050565b7f4552433732313a2063616c6c6572206973206e6f7420746f6b656e206f776e6560008201527f72206e6f7220617070726f766564000000000000000000000000000000000000602082015250565b6000613b23602e836130ab565b9150613b2e82613ac7565b604082019050919050565b60006020820190508181036000830152613b5281613b16565b9050919050565b6000606082019050613b6e60008301866133d3565b613b7b60208301856136df565b613b8860408301846133d3565b949350505050565b7f4349442063616e6e6f7420626520656d70747900000000000000000000000000600082015250565b6000613bc66013836130ab565b9150613bd182613b90565b602082019050919050565b60006020820190508181036000830152613bf581613bb9565b9050919050565b600081905092915050565b6000613c138385613bfc565b9350613c20838584613208565b82840190509392505050565b6000613c39828486613c07565b91508190509392505050565b7f446f63756d656e74207769746820746869732043494420616c7265616479206560008201527f7869737473000000000000000000000000000000000000000000000000000000602082015250565b6000613ca16025836130ab565b9150613cac82613c45565b604082019050919050565b60006020820190508181036000830152613cd081613c94565b9050919050565b7f4e487b7100000000000000000000000000000000000000000000000000000000600052601160045260246000fd5b6000613d1182613370565b91507fffffffffffffffffffffffffffffffffffffffffffffffffffffffffffffffff8203613d4357613d42613cd7565b5b600182019050919050565b60008190508160005260206000209050919050565b60006020601f8301049050919050565b600082821b905092915050565b600060088302613db07fffffffffffffffffffffffffffffffffffffffffffffffffffffffffffffffff82613d73565b613dba8683613d73565b95508019841693508086168417925050509392505050565b6000613ded613de8613de384613370565b613a71565b613370565b9050919050565b6000819050919050565b613e0783613dd2565b613e1b613e1382613df4565b848454613d80565b825550505050565b600090565b613e30613e23565b613e3b818484613dfe565b505050565b5b81811015613e5f57613e54600082613e28565b600181019050613e41565b5050565b601f821115613ea457613e7581613d4e565b613e7e84613d63565b81016020851015613e8d578190505b613ea1613e9985613d63565b830182613e40565b50505b505050565b600082821c905092915050565b6000613ec760001984600802613ea9565b1980831691505092915050565b6000613ee08383613eb6565b9150826002028217905092915050565b613ef9826130a0565b67ffffffffffffffff811115613f1257613f1161315c565b5b613f1c8254613a22565b613f27828285613e63565b600060209050601f831160018114613f5a5760008415613f48578287015190505b613f528582613ed4565b865550613fba565b601f198416613f6886613d4e565b60005b82811015613f9057848901518255600182019150602085019450602081019050613f6b565b86831015613fad5784890151613fa9601f891682613eb6565b8355505b6001600288020188555050505b505050505050565b6000613fce83856130ab565b9350613fdb838584613208565b613fe4836130e6565b840190509392505050565b6000606082019050818103600083015261400a818789613fc2565b9050818103602083015261401f818587613fc2565b905061402e60408301846136df565b9695505050505050565b7f446f63756d656e74206e6f7420666f756e6420666f7220746869732043494400600082015250565b600061406e601f836130ab565b915061407982614038565b602082019050919050565b6000602082019050818103600083015261409d81614061565b9050919050565b60006140af826130a0565b6140b98185613bfc565b93506140c98185602086016130bc565b80840191505092915050565b60006140e182856140a4565b91506140ed82846140a4565b91508190509392505050565b600081519050614108816134da565b92915050565b60006020828403121561412457614123612fdb565b5b6000614132848285016140f9565b91505092915050565b600081519050919050565b600082825260208201905092915050565b60006141628261413b565b61416c8185614146565b935061417c8185602086016130bc565b614185816130e6565b840191505092915050565b60006080820190506141a560008301876133d3565b6141b260208301866133d3565b6141bf60408301856136df565b81810360608301526141d18184614157565b905095945050505050565b6000815190506141eb81613011565b92915050565b60006020828403121561420757614206612fdb565b5b6000614215848285016141dc565b91505092915050565b7f4e487b7100000000000000000000000000000000000000000000000000000000600052601260045260246000fd5b600060408201905061426260008301856133d3565b61426f6020830184613533565b9392505050565b600060408201905061428b60008301856133d3565b61429860208301846136df565b9392505050565b600081905092915050565b60006142b58261413b565b6142bf818561429f565b93506142cf8185602086016130bc565b80840191505092915050565b60006142e782846142aa565b91508190509291505056fea2646970667358221220e4ec674ba30a9f3a146d174eab0dd4f714009520a98120686e0559f2609ab9cf64736f6c63430008160033",
  "linkReferences": {},
  "deployedLinkReferences": {}
}